:020000040800F2
:1000000070050020010100086B0F0008970D000823
:10001000690F000849010008931200080000000061
:100020000000000000000000000000008F0F00082A
:100030004B010008000000008D0F0008910F000820
:100040001B0100081B0100081B0100081B01000820
:100050001B0100081B0100081B0100081B01000810
:100060001B0100081B0100081B0100081B01000800
:100070001B0100081B0100081B0100081B010008F0
:100080001B0100081B0100081B0100081B010008E0
:100090001B0100081B0100081B0100081B010008D0
:1000A0001B0100081B0100081B0100081B010008C0
:1000B00045100008611000088D1000081B010008A1
:1000C0001B0100081B0100081B0100081B010008A0
:1000D0001B0100081B0100081B0100081B01000890
:1000E0001B0100081B0100081B010008DFF80CD0F1
:1000F00000F018F800480047591300087005002068
:100100000648804706480047FEE7FEE7FEE7FEE7B1
:10011000FEE7FEE7FEE7FEE7FEE7FEE7FD0F00086D
:10012000ED000008064C074D06E0E06840F00103D2
:1001300094E8070098471034AC42F6D3FFF7DAFF93
:10014000D0150008F0150008FEE770472DE9F84FBC
:10015000DFF890A100220AF1040B144601274FF0AA
:100160000F090BF1040E00BF0B6807FA04F52B40D2
:10017000AB4274D1DFF870C14E68A6EB0C0866453F
:100180002BD00DDC032E34D005DC36B3012E19D074
:10019000022E2FD11BE0112E16D0122E2AD119E0DB
:1001A000B8F5881F19D006DCB8F5803F15D0B8F532
:1001B000801F1FD111E0B8F5001F0ED0B8F5041F45
:1001C00018D10AE0CA6815E0CA68121D12E0CA68B0
:1001D00008320FE0CA680C320CE08A682AB1012AA2
:1001E0004FF0080203D0456104E0042202E00561FB
:1001F00000E00022FF2B01D8064601E000F10406D2
:100200004FEA840501D9A5F12005D6F800C009FA06
:1002100005F82CEA080C02FA05F54CEA050CC6F8BC
:1002200000C04D68ED0057D5304DAE6946F001066F
:10023000AE61AD6924F0030605F0010500952C4D73
:1002400006EB050CDCF80850A6074FEA167809FA09
:1002500008F6B543274EB04202D1002610E03BE03D
:10026000254EB04201D101260AE0244EB04201D110
:10027000022605E0224EB04201D1032600E004260A
:1002800006FA08F62E43CCF808604D68DAF80060EC
:10029000ED03554601D51E4300E09E432E604D6898
:1002A000DBF80060AD035D4601D51E4300E09E43D0
:1002B0002E604D68DEF80060ED02754601D51E43E4
:1002C00000E09E432E604D68AD020E4D2E6801D5B4
:1002D0001E4300E09E432E60641C102CFFF444AFCC
:1002E000BDE8F88F0004014000001110001002402A
:1002F0000000014000080140000C014000100140D6
:10030000001401400C0401408068084000D0012026
:100310007047C2684A40C26070470AB101617047C5
:100320000904FBE701488068704700009400002042
:10033000024881680278114481607047940000206F
:10034000074810B5016841F010010160032000F07A
:100350009DF8002000F006F800F024F8002010BD01
:100360000020024070B50D4D04464FF47A71287894
:10037000B1FBF0F00A490968B1FBF0F000F00DFBA9
:1003800048B9102C07D200222146501E00F05EF81A
:1003900000206C6070BD012070BD00009400002042
:1003A000A0000020214808B5816941F00101816168
:1003B000816901F001010091C16941F08051C16181
:1003C000C06900F080500090032000F05FF8002228
:1003D00011466FF00B0000F039F8002211466FF063
:1003E0000A0000F033F8002211466FF0090000F017
:1003F0002DF800221146501F00F028F80022114667
:10040000101F00F023F800221146901E00F01EF885
:1004100000221146501E00F019F80548416821F0ED
:10042000E06141F00071416008BD00000010024031
:100430000000014000F01F020121914040098000AE
:1004400000F1E020C0F8001170470000F0B40E4B3E
:100450001B680C46C3F30223C3F10705042D00D922
:100460000425191D072901D2002300E0DB1E012607
:1004700006FA05F1491E214099409E40761E16401D
:100480003143F0BC00F072BD0CED00E0064900F015
:10049000070208684FF6FF03184040EA0220034AAB
:1004A00010430860704700000CED00E00000FA0502
:1004B0002DE9F047DFF83C8105460E46D8F80000EC
:1004C00000F00700B0420CD2D8F8001021F007016C
:1004D0003143C8F80010D8F8000000F00700B0421F
:1004E00063D12878444C800705D56068A96820F05E
:1004F000F000084360602878C00745D0686801288C
:1005000016D02168022816D0890700294DDA6168C3
:1005100021F0030101436160FFF704FF69680746AA
:1005200041F2883001290FD00229814619D027E0F5
:1005300021688903E9E78901E7E700BFFFF7F2FED9
:10054000C11B494501D918E081466068C0F38100AC
:100550000128F3D118E000BFFFF7E4FEC11B4945B5
:100560000BD86068C0F381000228F5D10CE000BF11
:10057000FFF7D8FEC11B494502D90320BDE8F0872B
:10058000606810F00C0FF3D1D8F80010404601F06D
:100590000701B1420BD9016821F007013143016025
:1005A000006800F00700B04201D00120E6E728789B
:1005B000400705D56068E96820F4E06008436060A2
:1005C0002878000706D56068296920F4605040EA61
:1005D000C100606000F01CF86168084AC1F30311B3
:1005E000515CC840064908600020FFF7BBFE0020B0
:1005F000C4E700000020024000100240C0150008BF
:10060000A00000200148006870470000A000002002
:1006100012A185B00FC98DE80F0014A0144A00681C
:1006200004905168134801F00C03042B10D0082BE0
:100630000ED1C1F38343C9031DF803000AD55168E5
:1006400004AAC1F34041515C0A4A5043B0FBF1F0A7
:1006500005B0704708494843FAE700000203040563
:10066000060708090A0B0C0D0E0F101001020000FE
:100670000010024000127A0000093D002DE9F84FF9
:1006800004460078B94DC00748D06868C0F38100BF
:10069000012807D06868C0F38100022809D1686882
:1006A000C00306D52868800338D5606800286FD05D
:1006B00034E06068B0F5803F0BD010B1B0F5A02FEA
:1006C00011D0286820F480302860286820F4802029
:1006D00002E0286840F480302860606888B1FFF745
:1006E00021FE064609E0286840F480202860F0E7F3
:1006F000FFF718FE801B642875D828688003F7D59B
:100700000CE0FFF70FFE064605E000BFFFF70AFE0C
:10071000801B6428F0D828688003F7D42078944E92
:1007200080074FF001094FF000083BD5686810F0D2
:100730000C0F07D06868C0F38100022809D16868EF
:10074000C00306D42868800714D5206901281FD16A
:1007500010E02069B0B1C6F80090FFF7E3FD07464E
:1007600005E000BFFFF7DEFDC01B0228C4D82868E3
:100770008007F7D52868616920F0F80040EAC100D9
:1007800028600FE0C6F80080FFF7CCFD074606E0C2
:10079000E9E000BFFFF7C6FDC01B022823D8286888
:1007A0008007F7D4207800072CD57248A169D9B109
:1007B000C0F80090FFF7B6FD074604E0FFF7B2FD72
:1007C000C01B02280FD8686A8007F7D56A484FF423
:1007D000FA510068B0FBF1F0009000BF0098411E94
:1007E0000091FAD20EE080E0C0F80080FFF79AFD99
:1007F000074604E0FFF796FDC01B022875D8686A1B
:100800008007F7D42078400760D5E8690027C0004A
:1008100008D4E86940F08050E861E869012700F0F9
:100820008050009055480168C90513D4016883467B
:1008300041F480710160FFF775FD824606E000BF5C
:10084000FFF770FDA0EB0A0064284ED8DBF800002B
:10085000C005F5D5E06801280AD008B1052813D0F5
:10086000286A20F001002862286A20F0040002E0D3
:10087000286A40F001002862E06841F2883B98B1A4
:10088000FFF750FD82460BE0286A40F00400286222
:10089000EEE700BFFFF746FDA0EB0A0159455AD825
:1008A000286A8007F6D50CE0FFF73CFD824605E09C
:1008B000FFF738FDA0EB0A0159454CD8286A80079C
:1008C000F6D41FB1E86920F08050E861E06988B390
:1008D0006968C1F38101022945D00228C6F8608009
:1008E00004D0FFF71FFD044638E034E0FFF71AFD9F
:1008F000074604E0FFF716FDC01B02282BD8286826
:100900008001F7D4206AB0F5803F05D16868A168FE
:1009100020F4003008436860D4E90801084369689E
:1009200021F4741108436860C6F86090FFF7FAFC80
:10093000044606E015E000BFFFF7F4FC001B0228A8
:1009400009D828688001F7D50BE000BFFFF7EAFC63
:10095000001B022802D90320BDE8F88F2868800117
:10096000F4D40020F8E70120F6E700000010024070
:100970000000424280044242A0000020007000407B
:100980004FF0E0210428086903D020F0040008613A
:10099000704740F00400FAE7704710B5401EB0F110
:1009A000807F01D3012010BD4FF0E02460610F2152
:1009B000601700F0DBFA0020A06107202061002012
:1009C00010BD10B5FFF7E8FF10BD7047704730B598
:1009D00090F83C20012A20D0012280F83C200223FC
:1009E00080F83D3003685C6824F070045C60036844
:1009F0005C680D682C435C6003689C6824F080048C
:100A00009C6003689C6849680C439C6080F83D20AA
:100A1000002180F83C10084630BD022030BD10B5E2
:100A2000040003D094F83D0010B107E0012010BD90
:100A3000002084F83C00204600F00CF8022084F8E6
:100A40003D00211D206800F0B9FB012084F83D0025
:100A5000002010BD08B501681148B1F1804F0BD0DE
:100A6000104A914210D1C16941F00201C161C069CF
:100A700000F00200009008BDC16941F00101C161B0
:100A8000C06900F00100F5E7074A9142F3D1C1695E
:100A900041F00401C161C06900F00400EAE7000010
:100AA000001002400004004000080040022180F8CD
:100AB0003D1001680A6842F001020A60012180F8D5
:100AC0003D10002070470168CA6842F00102CA6008
:100AD0000068016841F001010160002070470221B7
:100AE00080F83D1001680A6A41F211131A4207D1D9
:100AF0000A6A9B101A4203D10A6822F001020A60B6
:100B0000012180F83D10002070470168CA6822F07A
:100B10000102CA600068016A41F21112114207D154
:100B2000016A9210114203D1016821F001010160B4
:100B30000020704770B5044690F83C00012817D09B
:100B4000012584F83C50022084F83D00206882682A
:100B500022F0770222F47F4282600868502837D062
:100B60000DDC202859D005DC88B3102841D151E094
:100B7000022070BD302853D040283AD13FE0602891
:100B80002ED070280BD0B0F5805F03D0B0F5005F99
:100B90002FD110E02068816821F0070115E0CB68B3
:100BA000D1E90121206800F03FFB2168886840F00E
:100BB000770088601DE0CB68D1E90121206800F052
:100BC00033FB2068816841F48041816011E01EE0C0
:100BD000CA684968206800F039FB5021206806E0A7
:100BE000CA684968206800F042FB6021206800F074
:100BF00025FB84F83D50002084F83C0070BDCA6895
:100C00004968206800F022FB40212068EFE70021BE
:100C10002068ECE710212068E9E720212068E6E75A
:100C200030212068E3E7704770B504460068016929
:100C30004FF00005C943890715D4C168C943890726
:100C400011D4E91E016101202077206880698007A6
:100C5000204602D0FFF7E7FF04E000F098F82046B6
:100C600000F096F8257720680169C943490717D431
:100C7000C168C943490713D46FF004010161022020
:100C800020772068806910F4407F204602D0FFF76B
:100C9000CAFF04E000F07BF8204600F079F82577E1
:100CA00020680169C943090716D4C168C943090707
:100CB00012D46FF008010161042020772068C06918
:100CC0008007204602D0FFF7AEFF04E000F05FF897
:100CD000204600F05DF8257720680169C943C90600
:100CE00017D4C168C943C90613D46FF0100101615C
:100CF000082020772068C06910F4407F204602D089
:100D0000FFF791FF04E000F042F8204600F040F8C1
:100D1000257720680169C943C90708D1C168C9435B
:100D2000C90704D1891E0161204600F032F820680D
:100D30000169C943090609D4C168C943090605D434
:100D40006FF0800101612046FFF73FFE20680169D6
:100D5000C943490609D4C168C943490605D46FF09F
:100D600040010161204600F015F820680169C9437F
:100D700089060BD4C168C943890607D46FF02001E6
:100D800001612046BDE87040FFF720BE70BD70478E
:100D9000704770477047FEE72DE9F04F304885B047
:100DA000816941F010018161816901F010010491B4
:100DB000816941F004018161816901F004010491BC
:100DC000816941F0080181618069DFF8989000F045
:100DD00008004FF400440490002221464846FFF7E3
:100DE0009CFADFF884A04FF6F0770022394650468F
:100DF000FFF793FADFF874B04FF400680022414621
:100E00005846FFF78AFA0126CDE90046002402255C
:100E100069464846CDE90245FFF798F940F2FF40A0
:100E20008DE8310069465846FFF790F909208DE8B2
:100E3000310069465046FFF789F9CDE900766946E9
:100E40005046CDE90245FFF781F9CDE900866946B4
:100E50005846CDE90245FFF779F905B0BDE8F08FB6
:100E60000010024000100140000C01400008014049
:100E700010B5124886B04FF0804101607C210024FB
:100E8000C0E901142821C0E903148461FFF7C7FDFC
:100E900000B1FEE74FF48050009069460748FFF725
:100EA00049FE00B1FEE7049404A904480594FFF745
:100EB0008EFD002800D0FEE706B010BDA400002083
:100EC00010B5134886B0114901607C210024C0E9A7
:100ED00001142821C0E903148461FFF7A0FD00B1CB
:100EE000FEE74FF48050009069460948FFF722FE64
:100EF00000B1FEE7049404A905480594FFF767FDD7
:100F0000002800D0FEE706B010BD0000000400403D
:100F1000E400002010B5134886B0114901607C211F
:100F20000024C0E901140121C0E903148461FFF722
:100F300076FD00B1FEE74FF4805000906946094805
:100F4000FFF7F8FD00B1FEE7049404A905480594F5
:100F5000FFF73DFD002800D0FEE706B010BD000001
:100F60000008004024010020FEE770470907090E31
:100F7000002806DA00F00F0000F1E02080F8141DD0
:100F8000704700F1E02080F8001470477047704708
:100F900010B5FFF7CDF9BDE81040FFF712BD10B551
:100FA00090B00220009001200490102000240590B1
:100FB00007946846FFF762FB00B1FEE70F20CDE91A
:100FC0000A044FF4E0600C94CDE90D4000210AA81A
:100FD000FFF76EFA00B1FEE7FFF714FB4FF47A71EA
:100FE000B0FBF1F0FFF7D9FC0420FFF7C9FC0022A9
:100FF0001146501EFFF72AFA10B010BD0D480168C7
:1010000041F00101016041680B4A114041600168F3
:101010000A4A11400160016821F4802101604168A1
:1010200021F4FE0141604FF41F0181600449C003B7
:1010300008607047001002400000FFF8FFFFF6FE56
:1010400008ED00E010B510210348FFF762F9BDE894
:1010500010400248FFF7E8BD000C0140A40000204A
:1010600010B54FF400610648FFF753F905480168D1
:10107000491C0160BDE810400348FFF7D5BD0000E2
:10108000000801404C000020E40000202DE9F04160
:101090004348FFF7C9FD434C00252068401C2060F1
:1010A00028281AD01438022818D801213E48FFF702
:1010B0002BF93E49A26841F82200521CA260032A83
:1010C0000CD1A560D1E900028968104401440120D7
:1010D0006161022904D2256103E02560BDE8F08149
:1010E0002061666869236521314A653E052EF5D287
:1010F000DFE806F0030A1B284100216901BB6621D5
:101100006160C4E90605E9E72069012806D1D4E950
:1011100006100844E061206A401C2062A06940007B
:10112000A0618028DAD9672008E094F8200000F058
:10113000010020622169884202D168206060CDE709
:101140006360CBE72669012E01D026B106E0E36893
:101150005B1CE36002E0E668022EF1D3E368022B39
:10116000BCD1C4E90051134BE16919601249A06177
:10117000106008600FE0A369802B02D85800A061BE
:10118000ACE7E368032B02D25B1CE360A6E7A06137
:10119000C4E900511060E560E56125629EE700004A
:1011A0002401002070000020000C01406401002098
:1011B000140000200000002010000020F0B502689C
:1011C000164B174C174D4FF08047984205D0B84248
:1011D00003D0A04201D0A84203D122F070064A6891
:1011E0003243984205D0B84203D0A04201D0A84271
:1011F00003D122F44074CA68224322F080044A6971
:10120000224302608A68C2620A688262984201D1FF
:101210000969016301214161F0BD0000002C01401A
:10122000000400400008004010B5846842EA032230
:1012300024F47F440A432243826010BD826822F076
:1012400070020A4342F007018160704710B5036ADB
:10125000046A24F001040462846924F0F00444EA7E
:10126000021423F00A020A438461026210BD10B521
:10127000036A23F0100303628369046A23F4704352
:1012800043EA023224F0A00343EA011182610162C1
:1012900010BDFEE702E008C8121F08C1002AFAD1FB
:1012A00070477047002001E001C1121F002AFBD1E6
:1012B000704700002DE9F041244C0025606D40B1DD
:1012C0002348FFF7F3FB2248FFF7FDFB6565BDE808
:1012D000F081204F606A012678B1E0690028F6D1DC
:1012E00008213846FFF710F820B1A06D0078E660BD
:1012F000E066ECE7606A0028E9D1E0690028E6D002
:10130000206D30B1012220213846FFF706F8A66291
:10131000256580213846FEF7F7FF28B1002280219D
:101320003846FEF7FAFFA56020690028CFD0E16DAE
:101330002268086862F31F2020660860012280216D
:101340003846FEF7EAFFA6602561C0E700000020EE
:10135000A4000020000C0140FEF7F2FFFFF71FFE83
:10136000FFF71AFDFFF784FDFFF7AAFDFFF7D2FD97
:10137000002211461C20FFF769F81C20FFF75AF8DD
:10138000002211461D20FFF761F81D20FFF752F8DB
:10139000002211461E20FFF759F81E20FFF74AF8D9
:1013A00000F0E2F8FFF786FF00F0E6F8F8E700004B
:1013B00010B501210E48FEF7A7FF0E4C6066A16E26
:1013C000084307D10C48FFF771FB0B48FFF77BFB85
:1013D0000120A0666069002808D00748FFF77FFB5E
:1013E0000548FFF792FB0020A066606110BD000079
:1013F000000C014000000020240100202DE9F05FD6
:10140000544C0025DFF850B1DFF85091606C012694
:101410004FF4004A4FF4006858B101225146584633
:10142000FEF77BFF002241464846FEF776FFC4E9FF
:1014300011564B4FE06888B14A48E564FFF736FB28
:101440004848FFF740FB012240213846FEF765FF80
:101450006520E560C4E90B60BDE8F09F206A0028C4
:10146000FAD1A0690028F7D0206B642814D0652831
:1014700019D066281ED067283DD06828ECD1E06BD3
:1014800002284DD2012251465846FEF746FFA66477
:10149000E06B401CE063DFE7012251465846FEF74F
:1014A0003CFFA664D8E7002251465846FEF735FFB8
:1014B000A5641DE0606BE26E01461040A0638842A7
:1014C00009D1012251465846FEF727FF206CA66439
:1014D000401C206405E0002251465846A564FEF7F2
:1014E0001CFF606B40006063802801D9672000E02A
:1014F00066202063B0E794F84000C00708D0266457
:10150000012251465846A664FEF707FF6820F0E71F
:101510000022514658462564FEF7FFFEA564F5E714
:101520001048FFF7DCFA0F48FFF7EFFA00224021DE
:101530003846FEF7F2FE002241464846FEF7EDFE31
:10154000A66466636420E563C4E90B50E564256422
:1015500082E7000000000020001001400008014068
:10156000000C0140E400002010B5FFF747FFBDE884
:101570001040FFF71DBF000070B50E4C4FF48061A6
:10158000A0692062E06960620B48FEF7BDFE0B4D6A
:10159000A06110212846FEF7B7FEE0610821284629
:1015A000FEF7B2FE606080212846FEF7ADFEA06027
:1015B00070BD00000000002000080140000C014048
:1015C00000000000000000000102030406070809F3
:1015D000F015000800000020A4000000941200088C
:1015E00094160008A4000020CC040000A4120008F7
:1015F00000000000000000000000000000000000EB
:1016000000000000000000000000000000000000DA
:1016100000000000000000000000000000000000CA
:101620006400000001000000FFFFFFFF0000000059
:1016300000000000010000000100000000000000A8
:101640000100000001000000080801400C0C0140EE
:101650000000000001000000000000000000000089
:101660000000000065000000000000000000000015
:10167000FFFFFFFF0000000001000000000000006D
:101680000000000001000000100000000000000049
:0416900000A24A0466
:04000005080000ED02
:00000001FF
