:020000040800F2
:1000000070050020010100086F0F0008970D00081F
:100010006D0F000849010008571200080000000099
:10002000000000000000000000000000930F000826
:100030004B01000800000000910F0008950F000818
:100040001B0100081B0100081B0100081B01000820
:100050001B0100081B0100081B0100081B01000810
:100060001B0100081B0100081B0100081B01000800
:100070001B0100081B0100081B0100081B010008F0
:100080001B0100081B0100081B0100081B010008E0
:100090001B0100081B0100081B0100081B010008D0
:1000A0001B0100081B0100081B0100081B010008C0
:1000B0004910000865100008911000081B01000895
:1000C0001B0100081B0100081B0100081B010008A0
:1000D0001B0100081B0100081B0100081B01000890
:1000E0001B0100081B0100081B010008DFF80CD0F1
:1000F00000F018F8004800471D13000870050020A4
:100100000648804706480047FEE7FEE7FEE7FEE7B1
:10011000FEE7FEE7FEE7FEE7FEE7FEE70110000868
:10012000ED000008064C074D06E0E06840F00103D2
:1001300094E8070098471034AC42F6D3FFF7DAFF93
:100140007815000898150008FEE770472DE9F84F6C
:10015000DFF890A100220AF1040B144601274FF0AA
:100160000F090BF1040E00BF0B6807FA04F52B40D2
:10017000AB4274D1DFF870C14E68A6EB0C0866453F
:100180002BD00DDC032E34D005DC36B3012E19D074
:10019000022E2FD11BE0112E16D0122E2AD119E0DB
:1001A000B8F5881F19D006DCB8F5803F15D0B8F532
:1001B000801F1FD111E0B8F5001F0ED0B8F5041F45
:1001C00018D10AE0CA6815E0CA68121D12E0CA68B0
:1001D00008320FE0CA680C320CE08A682AB1012AA2
:1001E0004FF0080203D0456104E0042202E00561FB
:1001F00000E00022FF2B01D8064601E000F10406D2
:100200004FEA840501D9A5F12005D6F800C009FA06
:1002100005F82CEA080C02FA05F54CEA050CC6F8BC
:1002200000C04D68ED0057D5304DAE6946F001066F
:10023000AE61AD6924F0030605F0010500952C4D73
:1002400006EB050CDCF80850A6074FEA167809FA09
:1002500008F6B543274EB04202D1002610E03BE03D
:10026000254EB04201D101260AE0244EB04201D110
:10027000022605E0224EB04201D1032600E004260A
:1002800006FA08F62E43CCF808604D68DAF80060EC
:10029000ED03554601D51E4300E09E432E604D6898
:1002A000DBF80060AD035D4601D51E4300E09E43D0
:1002B0002E604D68DEF80060ED02754601D51E43E4
:1002C00000E09E432E604D68AD020E4D2E6801D5B4
:1002D0001E4300E09E432E60641C102CFFF444AFCC
:1002E000BDE8F88F0004014000001110001002402A
:1002F0000000014000080140000C014000100140D6
:10030000001401400C0401408068084000D0012026
:100310007047C2684A40C26070470AB101617047C5
:100320000904FBE701488068704700009400002042
:10033000024881680278114481607047940000206F
:10034000074810B5016841F010010160032000F07A
:100350009DF8002000F006F800F024F8002010BD01
:100360000020024070B50D4D04464FF47A71287894
:10037000B1FBF0F00A490968B1FBF0F000F00DFBA9
:1003800048B9102C07D200222146501E00F05EF81A
:1003900000206C6070BD012070BD00009400002042
:1003A000A0000020214808B5816941F00101816168
:1003B000816901F001010091C16941F08051C16181
:1003C000C06900F080500090032000F05FF8002228
:1003D00011466FF00B0000F039F8002211466FF063
:1003E0000A0000F033F8002211466FF0090000F017
:1003F0002DF800221146501F00F028F80022114667
:10040000101F00F023F800221146901E00F01EF885
:1004100000221146501E00F019F80548416821F0ED
:10042000E06141F00071416008BD00000010024031
:100430000000014000F01F020121914040098000AE
:1004400000F1E020C0F8001170470000F0B40E4B3E
:100450001B680C46C3F30223C3F10705042D00D922
:100460000425191D072901D2002300E0DB1E012607
:1004700006FA05F1491E214099409E40761E16401D
:100480003143F0BC00F074BD0CED00E0064900F013
:10049000070208684FF6FF03184040EA0220034AAB
:1004A00010430860704700000CED00E00000FA0502
:1004B0002DE9F047DFF83C8105460E46D8F80000EC
:1004C00000F00700B0420CD2D8F8001021F007016C
:1004D0003143C8F80010D8F8000000F00700B0421F
:1004E00063D12878444C800705D56068A96820F05E
:1004F000F000084360602878C00745D0686801288C
:1005000016D02168022816D0890700294DDA6168C3
:1005100021F0030101436160FFF704FF69680746AA
:1005200041F2883001290FD00229814619D027E0F5
:1005300021688903E9E78901E7E700BFFFF7F2FED9
:10054000C11B494501D918E081466068C0F38100AC
:100550000128F3D118E000BFFFF7E4FEC11B4945B5
:100560000BD86068C0F381000228F5D10CE000BF11
:10057000FFF7D8FEC11B494502D90320BDE8F0872B
:10058000606810F00C0FF3D1D8F80010404601F06D
:100590000701B1420BD9016821F007013143016025
:1005A000006800F00700B04201D00120E6E728789B
:1005B000400705D56068E96820F4E06008436060A2
:1005C0002878000706D56068296920F4605040EA61
:1005D000C100606000F01CF86168084AC1F30311B3
:1005E000515CC840064908600020FFF7BBFE0020B0
:1005F000C4E7000000200240001002406815000817
:10060000A00000200148006870470000A000002002
:1006100012A185B00FC98DE80F0014A0144A00681C
:1006200004905168134801F00C03042B10D0082BE0
:100630000ED1C1F38343C9031DF803000AD55168E5
:1006400004AAC1F34041515C0A4A5043B0FBF1F0A7
:1006500005B0704708494843FAE700000203040563
:10066000060708090A0B0C0D0E0F101001020000FE
:100670000010024000127A0000093D002DE9F84FF9
:1006800004460078B94DC00748D06868C0F38100BF
:10069000012807D06868C0F38100022809D1686882
:1006A000C00306D52868800338D5606800286FD05D
:1006B00034E06068B0F5803F0BD010B1B0F5A02FEA
:1006C00011D0286820F480302860286820F4802029
:1006D00002E0286840F480302860606888B1FFF745
:1006E00021FE064609E0286840F480202860F0E7F3
:1006F000FFF718FE801B642875D828688003F7D59B
:100700000CE0FFF70FFE064605E000BFFFF70AFE0C
:10071000801B6428F0D828688003F7D42078944E92
:1007200080074FF001094FF000083BD5686810F0D2
:100730000C0F07D06868C0F38100022809D16868EF
:10074000C00306D42868800714D5206901281FD16A
:1007500010E02069B0B1C6F80090FFF7E3FD07464E
:1007600005E000BFFFF7DEFDC01B0228C4D82868E3
:100770008007F7D52868616920F0F80040EAC100D9
:1007800028600FE0C6F80080FFF7CCFD074606E0C2
:10079000E9E000BFFFF7C6FDC01B022823D8286888
:1007A0008007F7D4207800072CD57248A169D9B109
:1007B000C0F80090FFF7B6FD074604E0FFF7B2FD72
:1007C000C01B02280FD8686A8007F7D56A484FF423
:1007D000FA510068B0FBF1F0009000BF0098411E94
:1007E0000091FAD20EE080E0C0F80080FFF79AFD99
:1007F000074604E0FFF796FDC01B022875D8686A1B
:100800008007F7D42078400760D5E8690027C0004A
:1008100008D4E86940F08050E861E869012700F0F9
:100820008050009055480168C90513D4016883467B
:1008300041F480710160FFF775FD824606E000BF5C
:10084000FFF770FDA0EB0A0064284ED8DBF800002B
:10085000C005F5D5E06801280AD008B1052813D0F5
:10086000286A20F001002862286A20F0040002E0D3
:10087000286A40F001002862E06841F2883B98B1A4
:10088000FFF750FD82460BE0286A40F00400286222
:10089000EEE700BFFFF746FDA0EB0A0159455AD825
:1008A000286A8007F6D50CE0FFF73CFD824605E09C
:1008B000FFF738FDA0EB0A0159454CD8286A80079C
:1008C000F6D41FB1E86920F08050E861E06988B390
:1008D0006968C1F38101022945D00228C6F8608009
:1008E00004D0FFF71FFD044638E034E0FFF71AFD9F
:1008F000074604E0FFF716FDC01B02282BD8286826
:100900008001F7D4206AB0F5803F05D16868A168FE
:1009100020F4003008436860D4E90801084369689E
:1009200021F4741108436860C6F86090FFF7FAFC80
:10093000044606E015E000BFFFF7F4FC001B0228A8
:1009400009D828688001F7D50BE000BFFFF7EAFC63
:10095000001B022802D90320BDE8F88F2868800117
:10096000F4D40020F8E70120F6E700000010024070
:100970000000424280044242A0000020007000407B
:100980004FF0E0210428086903D020F0040008613A
:10099000704740F00400FAE7704710B5401EB0F110
:1009A000807F01D3012010BD4FF0E02460610F2152
:1009B000601700F0DDFA0020A06107202061002010
:1009C00010BD10B5FFF7E8FF10BD7047704730B598
:1009D00090F83C20012A20D0012280F83C200223FC
:1009E00080F83D3003685C6824F070045C60036844
:1009F0005C680D682C435C6003689C6824F080048C
:100A00009C6003689C6849680C439C6080F83D20AA
:100A1000002180F83C10084630BD022030BD10B5E2
:100A2000040003D094F83D0010B107E0012010BD90
:100A3000002084F83C00204600F00CF8022084F8E6
:100A40003D00211D206800F09BFB012084F83D0043
:100A5000002010BD08B501681148B1F1804F0BD0DE
:100A6000104A914210D1C16941F00201C161C069CF
:100A700000F00200009008BDC16941F00101C161B0
:100A8000C06900F00100F5E7074A9142F3D1C1695E
:100A900041F00401C161C06900F00400EAE7000010
:100AA000001002400004004000080040022180F8CD
:100AB0003D1001680A6842F001020A60012180F8D5
:100AC0003D10002070470168CA6842F00102CA6008
:100AD0000068016841F001010160002070470221B7
:100AE00080F83D1001680A6A41F211131A4207D1D9
:100AF0000A6A9B101A4203D10A6822F001020A60B6
:100B0000012180F83D10002070470168CA6822F07A
:100B10000102CA600068016A41F21112114207D154
:100B2000016A9210114203D1016821F001010160B4
:100B30000020704770B5044690F83C00012817D09B
:100B4000012584F83C50022084F83D00206882682A
:100B500022F0770222F47F4282600868502837D062
:100B60000DDC202859D005DC88B3102841D151E094
:100B7000022070BD302853D040283AD13FE0602891
:100B80002ED070280BD0B0F5805F03D0B0F5005F99
:100B90002FD110E02068816821F0070115E0CB68B3
:100BA000D1E90121206800F021FB2168886840F02C
:100BB000770088601DE0CB68D1E90121206800F052
:100BC00015FB2068816841F48041816011E01EE0DE
:100BD000CA684968206800F01BFB5021206806E0C5
:100BE000CA684968206800F024FB6021206800F092
:100BF00007FB84F83D50002084F83C0070BDCA68B3
:100C00004968206800F004FB40212068EFE70021DC
:100C10002068ECE710212068E9E720212068E6E75A
:100C200030212068E3E7704770B504460068016929
:100C30004FF00005C943890715D4C168C943890726
:100C400011D4E91E016101202077206880698007A6
:100C5000204602D0FFF7E7FF04E000F098F82046B6
:100C600000F096F8257720680169C943490717D431
:100C7000C168C943490713D46FF004010161022020
:100C800020772068806910F4407F204602D0FFF76B
:100C9000CAFF04E000F07BF8204600F079F82577E1
:100CA00020680169C943090716D4C168C943090707
:100CB00012D46FF008010161042020772068C06918
:100CC0008007204602D0FFF7AEFF04E000F05FF897
:100CD000204600F05DF8257720680169C943C90600
:100CE00017D4C168C943C90613D46FF0100101615C
:100CF000082020772068C06910F4407F204602D089
:100D0000FFF791FF04E000F042F8204600F040F8C1
:100D1000257720680169C943C90708D1C168C9435B
:100D2000C90704D1891E0161204600F032F820680D
:100D30000169C943090609D4C168C943090605D434
:100D40006FF0800101612046FFF73FFE20680169D6
:100D5000C943490609D4C168C943490605D46FF09F
:100D600040010161204600F015F820680169C9437F
:100D700089060BD4C168C943890607D46FF02001E6
:100D800001612046BDE87040FFF720BE70BD70478E
:100D9000704770477047FEE72DE9F04F304885B047
:100DA000816941F010018161816901F010010491B4
:100DB000816941F004018161816901F004010491BC
:100DC000816941F0080181618069DFF8989000F045
:100DD00008004FF400440490002221464846FFF7E3
:100DE0009CFADFF884A04FF6F0770022394650468F
:100DF000FFF793FADFF874B04FF400680022414621
:100E00005846FFF78AFA0126CDE90046002402255C
:100E100069464846CDE90245FFF798F940F2FF40A0
:100E20008DE8310069465846FFF790F909208DE8B2
:100E3000310069465046FFF789F9CDE900766946E9
:100E40005046CDE90245FFF781F9CDE900866946B4
:100E50005846CDE90245FFF779F905B0BDE8F08FB6
:100E60000010024000100140000C01400008014049
:100E700010B5134886B04FF08041016040F2E14167
:100E80000024C0E901140421C0E903148461FFF7C0
:100E9000C6FD00B1FEE74FF4805000906946084857
:100EA000FFF748FE00B1FEE7049404A90448059446
:100EB000FFF78DFD002800D0FEE706B010BD000052
:100EC000A400002010B5134886B01149016040F21B
:100ED000E1410024C0E901140421C0E90314846144
:100EE000FFF79DFD00B1FEE74FF48050009069468A
:100EF0000848FFF71FFE00B1FEE7049404A9054867
:100F00000594FFF764FD002800D0FEE706B010BD91
:100F100000040040E400002010B5134886B01149D9
:100F2000016040F2E1410024C0E901140121C0E95F
:100F300003148461FFF773FD00B1FEE74FF48050A6
:100F4000009069460848FFF7F5FD00B1FEE70494FC
:100F500004A905480594FFF73AFD002800D0FEE7F4
:100F600006B010BD0008004024010020FEE77047D5
:100F70000907090E002806DA00F00F0000F1E02052
:100F800080F8141D704700F1E02080F800147047CD
:100F90007047704710B5FFF7CBF9BDE81040FFF779
:100FA00010BD10B590B002200090012004901020D8
:100FB0000024059007946846FFF760FB00B1FEE748
:100FC0000F20CDE90A044FF4E0600C94CDE90D4008
:100FD00000210AA8FFF76CFA00B1FEE7FFF712FB49
:100FE0004FF47A71B0FBF1F0FFF7D7FC0420FFF764
:100FF000C7FC00221146501EFFF728FA10B010BDA2
:101000000D48016841F00101016041680B4A11403F
:10101000416001680A4A11400160016821F48021A1
:101020000160416821F4FE0141604FF41F018160BD
:101030000449C00308607047001002400000FFF838
:10104000FFFFF6FE08ED00E010B510210348FFF7A2
:1010500060F9BDE810400248FFF7E6BD000C014012
:10106000A400002010B54FF400610648FFF751F9C5
:1010700005480168491C0160BDE810400348FFF7BE
:10108000D3BD0000000801404C000020E400002017
:1010900070B53448FFF7C8FD334C00252068401C6C
:1010A0002060042817D001213048FFF72DF930497E
:1010B000A26841F82200521CA260032A0CD1A5604C
:1010C000D1E90002896810440144012061610229CC
:1010D00003D2256102E0256070BD20616168652949
:1010E0000AD0662910D067291FD06829F4D1216958
:1010F0000129E16824D025E021690029ECD166218D
:101100006160C4E9060570BD2069012806D1D4E9F3
:1011100006100844E061206A401C2062A06940007B
:10112000A0618028EFD9672008E094F8200000F043
:101130000100206221698842E5D16820606070BDAD
:10114000491CE1600229FAD164210A4A6160E1691F
:10115000116009490860094908602562C4E906056B
:10116000E56070BD2401002070000020000C0140EB
:101170006401002000000020100000201400002066
:10118000F0B50268164B174C174D4FF08047984248
:1011900005D0B84203D0A04201D0A84203D122F02A
:1011A00070064A683243984205D0B84203D0A04244
:1011B00001D0A84203D122F44074CA68224322F02D
:1011C00080044A69224302608A68C2620A688262B5
:1011D000984201D10969016301214161F0BD00001C
:1011E000002C0140000400400008004010B5846855
:1011F00042EA032224F47F440A432243826010BD62
:10120000826822F070020A4342F007018160704751
:1012100010B5036A046A24F001040462846924F0AE
:10122000F00444EA021423F00A020A4384610262D1
:1012300010BD10B5036A23F0100303628369046ACA
:1012400023F4704343EA023224F0A00343EA01117D
:101250008261016210BDFEE702E008C8121F08C1EA
:10126000002AFAD170477047002001E001C1121F27
:10127000002AFBD1704700002DE9F041244C0025E5
:10128000606D40B12348FFF711FC2248FFF71BFCBB
:101290006565BDE8F081204F606A012678B1E0699C
:1012A0000028F6D108213846FFF72EF820B1A06DAE
:1012B0000078E660E066ECE7606A0028E9D1E06962
:1012C0000028E6D0206D30B1012220213846FFF7FA
:1012D00024F8A662256580213846FFF715F828B165
:1012E000002280213846FFF718F8A5602069002801
:1012F000CFD0E16D2268086862F31F202066086085
:10130000012280213846FFF708F8A6602561C0E772
:1013100000000020A4000020000C0140FFF710F89E
:10132000FFF73FFEFFF738FDFFF7A2FDFFF7CAFD0D
:10133000FFF7F2FD002211461C20FFF787F81C2062
:10134000FFF778F8002211461D20FFF77FF81D20D7
:10135000FFF770F8002211461E20FFF777F81E20D5
:10136000FFF768F800F0D4F8FFF786FF00F0D8F830
:10137000F8E7000010B501210848FEF7C5FF08494D
:1013800048668A6E104301D10120886648690028AA
:1013900002D000208866486110BD0000000C0140AA
:1013A000000000202DE9F05F544C0025DFF850B11B
:1013B000DFF85091606C01264FF4004A4FF400684A
:1013C00058B1012251465846FEF7A7FF0022414678
:1013D0004846FEF7A2FFC4E911564B4FE06888B1BA
:1013E0004A48E564FFF762FB4848FFF76CFB0122BF
:1013F00040213846FEF791FF6520E560C4E90B60A7
:10140000BDE8F09F206A0028FAD1A0690028F7D033
:10141000206B642815D065281AD0662820D067284C
:101420003FD06828ECD1E06B02284FD20122514610
:101430005846FEF772FF0320A064E06B401CE06397
:10144000DEE7012251465846FEF767FFA664D7E75C
:10145000002251465846FEF760FF0420A0641DE0BC
:10146000606BE26E01461040A063884209D1012200
:1014700051465846FEF751FF206CA664401C20647C
:1014800005E0002251465846A564FEF746FF606B12
:1014900040006063802801D9672000E06620206357
:1014A000AEE794F840004FF00205C00707D00122D4
:1014B00051465846A564FEF730FF6820EFE700224A
:1014C00051465846FEF729FFA564F6E70F48FFF797
:1014D00006FB0E48FFF719FB002240213846FEF7B5
:1014E0001CFF002241464846FEF717FFA6646663CC
:1014F0006420E563C4E90B50E56481E70000002047
:101500000010014000080140000C0140E4000020F0
:1015100010B5FFF747FFBDE81040FFF72BBF0000F5
:1015200070B50E4C4FF48061A0692062E069606282
:101530000B48FEF7E9FE0B4DA06110212846FEF78F
:10154000E3FEE06108212846FEF7DEFE60608021B0
:101550002846FEF7D9FEA06070BD00000000002004
:1015600000080140000C01400000000000000000E5
:10157000010203040607080998150008000000206E
:10158000A4000000581200083C160008A400002027
:10159000CC040000681200080000000000000000F9
:1015A000000000000000000000000000000000003B
:1015B000000000000000000000000000000000002B
:1015C00000000000000000006400000001000000B6
:1015D000FFFFFFFF0000000000000000010000000E
:1015E00001000000000000000100000001000000F8
:1015F000080801400C0C0140000000000100000040
:101600000000000000000000000000006500000075
:101610000000000000000000FFFFFFFF00000000CE
:1016200001000000000000000000000001000000B8
:0C163000100000000000000000A24A04AE
:04000005080000ED02
:00000001FF
